:040000008A11112828
:10000800FE00030EF0000408F1000A08F200831253
:1000180003137F08F3008A1167288A1113288301C4
:100028008A111628831603138701013085000130D1
:10003800831203179E007130831603138F00073055
:10004800810001308312031381000430F400740826
:10005800F9000B118B168B1781309F0050308316D7
:1000680003139F00F80178088312031387000430F4
:10007800F4007408F5007908031D4C280130F400D9
:100088007408F807780887007508F4007408F90000
:10009800C3309F050930F400F40B5028532883120D
:1000A80003139F149F185628831603131E08F40081
:1000B8007408F600831203131E08F4007408F7008E
:1000C8007708043E3C288B1A0B1D6D280130F90275
:1000D8000B117308FF0072088A0071088400700E03
:0800E8008300FE0E7E0E0900EC
:02400E00D5F0EB
:00000001FF
